{
  "_comment": "This test json file is a contract creation with CREATE opcode from an internal transaction. The associated code is under testdata/contracts/Factory.",
  "context": {
    "blockscore": "0x1",
    "number": "36867451",
    "timestamp": "1598422880"
  },
  "genesis": {
    "alloc": {
      "0x537e697c7ab75a26f9ecf0ce810e3154dfcaaf44": {
        "balance": "0x0",
        "code": "0x608060405234801561001057600080fd5b506004361061002b5760003560e01c80633f811b8014610030575b600080fd5b61005c6004803603602081101561004657600080fd5b810190808035906020019092919050505061005e565b005b8060405161006b90610096565b80828152602001915050604051809103906000f080158015610091573d6000803e3d6000fd5b505050565b6081806100a38339019056fe6080604052348015600f57600080fd5b50604051602080608183398101806040526020811015602d57600080fd5b810190808051906020019092919050505050603580604c6000396000f3fe6080604052600080fdfea165627a7a7230582023e6f924ecb36fdb6930ce08ac1ef8a0faf74224cfb255f0983c94e0d7e10e430029a165627a7a7230582092d33ffcdcaad4c73913317ea743392ee3c468c6f9ba94599332c447769dd1590029",
        "nonce": "1",
        "storage": {}
      },
      "0x71562b71999873db5b286df957af199ec94617f7": {
        "balance": "0x453ea495b1040000",
        "code": "0x",
        "nonce": "3",
        "storage": {}
      }
    },
    "blockscore": "0x1",
    "config": {
      "chainId": 1001,
      "deriveShaImpl": 2,
      "governance": {
        "governanceMode": "single",
        "governingNode": "0x99fb17d324fa0e07f23b49d09028ac0919414db6",
        "reward": {
          "deferredTxFee": true,
          "minimumStake": 5000000,
          "mintingAmount": 9600000000000000000,
          "proposerUpdateInterval": 3600,
          "ratio": "34/54/12",
          "stakingUpdateInterval": 86400,
          "useGiniCoeff": true
        }
      },
      "istanbul": {
        "epoch": 604800,
        "policy": 2,
        "sub": 22
      },
      "unitPrice": 25000000000
    },
    "extraData": "0xd883010501846b6c617988676f312e31342e36856c696e757800000000000000f90164f85494571e53df607be97431a5bbefca1dffe5aef56f4d945cb1a7dccbd0dc446e3640898ede8820368554c89499fb17d324fa0e07f23b49d09028ac0919414db694b74ff9dea397fe9e231df545eb53fe2adf776cb2b8412fb4ea2e81a1ce6535d180dfe4a7f538e2e2b9e6a8a103ea570fbd81bb91ddcf38765f09f9044a5aaa60dc12b6f74712fa20967522978584df556e3b6b2a7eba00f8c9b841819cdca8fddbfb55260cafdd5a25686b4ac4b39d2e1d55da5ecb9c18a58271d72d7e04ca0281e7dd2f4ad4112abddacf8adeaf65e45d4ca20a150e765f4178c001b8419c1451b18c49044c3baeb8caac63fc896770aa664d778851fb4163957c943b2237562bf881283c75de5bb3b7812be04c5e9a87062805b8777528947d867e717200b8419e61b4e46968a4d284656bf3f1965a006eaff1aa529b5bf43bc0b2ba47694763054a22a99e5cc3f64472468ebfefe6c0376026475c90332ef4f30ce8057e78a701",
    "hash": "0x8d6be1fd3a5277cda749c5c5dc2a2d2761de009c7c786e387e767dc117763cc2",
    "number": "36867450",
    "reward": "0x6559a7b6248b342bc11fbcdf9343212bbc347edc",
    "stateRoot": "0x823be15062fb79d6af3ede2cfc4f854ed500e34aa00e27501aba881470060bf5",
    "timestamp": "1598422879",
    "timestampFoS": 1,
    "totalBlockScore": "0x2328d7b",
    "voteData": "0x"
  },
  "input": "0xf88a038505d21dba0082fd7194537e697c7ab75a26f9ecf0ce810e3154dfcaaf4480a43f811b8012345600000000000000000000000000000000000000000000000000000000008207f6a078620ce2f6fbe160099aec1971e05f7b4fb7024474c96d0bef3b88808c187910a0404a4a7c8feef7553d6486eec031b16dc8e51d9ea2120c6ecabe2d7d181f257c",
  "result": {
    "calls": [
      {
        "from": "0x537e697c7ab75a26f9ecf0ce810e3154dfcaaf44",
        "gas": "0x2a20",
        "gasUsed": "0x2a20",
        "input": "0x6080604052348015600f57600080fd5b50604051602080608183398101806040526020811015602d57600080fd5b810190808051906020019092919050505050603580604c6000396000f3fe6080604052600080fdfea165627a7a7230582023e6f924ecb36fdb6930ce08ac1ef8a0faf74224cfb255f0983c94e0d7e10e4300291234560000000000000000000000000000000000000000000000000000000000",
        "output": "0x6080604052600080fdfea165627a7a7230582023e6f924ecb36fdb6930ce08ac1ef8a0faf74224cfb255f0983c94e0d7e10e430029",
        "to": "0x1065f6d1783aff1ae54764418f9e359c8f957d15",
        "type": "CREATE",
        "value": "0x0"
      }
    ],
    "from": "0x71562b71999873db5b286df957af199ec94617f7",
    "gas": "0xa919",
    "gasUsed": "0xa897",
    "input": "0x3f811b801234560000000000000000000000000000000000000000000000000000000000",
    "output": "0x",
    "to": "0x537e697c7ab75a26f9ecf0ce810e3154dfcaaf44",
    "type": "CALL",
    "value": "0x0"
  }
}