{
  "_comment": "This test json file is a contract creation with CREATE2 opcode from an internal transaction. The associated code is under testdata/contracts/Factory2.",
  "context": {
    "blockscore": "0x1",
    "number": "36876604",
    "timestamp": "1598432033"
  },
  "genesis": {
    "alloc": {
      "0x71562b71999873db5b286df957af199ec94617f7": {
        "balance": "0x4525498b355eaa00",
        "code": "0x",
        "nonce": "6",
        "storage": {}
      },
      "0xe213d8b68ca3d01e51a6dba669de59ac9a8359ee": {
        "balance": "0x0",
        "code": "0x608060405234801561001057600080fd5b506004361061002b5760003560e01c80639c4ae2d014610030575b600080fd5b6100f36004803603604081101561004657600080fd5b810190808035906020019064010000000081111561006357600080fd5b82018360208201111561007557600080fd5b8035906020019184600183028401116401000000008311171561009757600080fd5b91908080601f016020809104026020016040519081016040528093929190818152602001838380828437600081840152601f19601f820116905080830192505050505050509192919290803590602001909291905050506100f5565b005b6000818351602085016000f59050803b61010e57600080fd5b50505056fea165627a7a72305820a1cbb9ecdbd4f0aa7f20d87013b5335e4b32f8984ab798ac97047ec0912eae550029",
        "nonce": "1",
        "storage": {}
      }
    },
    "blockscore": "0x1",
    "config": {
      "chainId": 1001,
      "deriveShaImpl": 2,
      "governance": {
        "governanceMode": "single",
        "governingNode": "0x99fb17d324fa0e07f23b49d09028ac0919414db6",
        "reward": {
          "deferredTxFee": true,
          "minimumStake": 5000000,
          "mintingAmount": 9600000000000000000,
          "proposerUpdateInterval": 3600,
          "ratio": "34/54/12",
          "stakingUpdateInterval": 86400,
          "useGiniCoeff": true
        }
      },
      "istanbul": {
        "epoch": 604800,
        "policy": 2,
        "sub": 22
      },
      "unitPrice": 25000000000
    },
    "extraData": "0xd883010501846b6c617988676f312e31342e36856c696e757800000000000000f90164f85494571e53df607be97431a5bbefca1dffe5aef56f4d945cb1a7dccbd0dc446e3640898ede8820368554c89499fb17d324fa0e07f23b49d09028ac0919414db694b74ff9dea397fe9e231df545eb53fe2adf776cb2b841a819a93bf573bc4d9c6413d78b9b2c2b2df3f2c7777cd16b2ffabaa010d1e3944ac4488da66dee1cd1b533e63eb7f6404007847f2028bfb2b324f61424edf3ca00f8c9b841bc8dd80238d9084079b2127dc8892556b566a7ea9f95773cbfe792c9910c3e61137f24c6022cd63d3447d121ffb51983985d45620a4cdc98c1979edd81a5bc5e01b841fefecba12ed526afece2856c4b95d8bc3d10f5fb88e437974bef5437237c11582c3e61c496a051e9de690c86473bc94337cf934214a7ce0994e6f74083fd48e200b8416fcedc58ae6671231a9f7ab4f51220ad2906a2df532d4ec157eec946c499e9de4067fc6d8941cf60f49655a0a177d240110fa70fa5bbb6ca471c797babfd47ca01",
    "hash": "0x6165aca054f8824ed621544660655989b25d5845822c4371520c0a01c14d464c",
    "number": "36876603",
    "reward": "0x6559a7b6248b342bc11fbcdf9343212bbc347edc",
    "stateRoot": "0xab73fed8bad7912d547576abf1ad543cafa3e52607d9323e507f1c824c6d1119",
    "timestamp": "1598432032",
    "timestampFoS": 1,
    "totalBlockScore": "0x232b13c",
    "voteData": "0x"
  },
  "input": "0xf9016d068505d21dba008301231094e213d8b68ca3d01e51a6dba669de59ac9a8359ee80b901049c4ae2d00000000000000000000000000000000000000000000000000000000000000040000000000000000000000000000000000000000000000000000000000000007b00000000000000000000000000000000000000000000000000000000000000816080604052348015600f57600080fd5b50604051602080608183398101806040526020811015602d57600080fd5b810190808051906020019092919050505050603580604c6000396000f3fe6080604052600080fdfea165627a7a72305820c577c5325e4c667e8439f998d616e74110a14fb5b185afe46d8443bbfd9c3d710029000000000000000000000000000000000000000000000000000000000000008207f5a09c9cde7fbfd4ac35126b4c5ec9295637811da8b2537f8b00c5feacaaf6d827c4a02397b988a87a1f2d25fa89648bcecf046c83d8dc8086334ebaa47952912f9a04",
  "result": {
    "calls": [
      {
        "from": "0xe213d8b68ca3d01e51a6dba669de59ac9a8359ee",
        "gas": "0x2c4d",
        "gasUsed": "0x2a20",
        "input": "0x6080604052348015600f57600080fd5b50604051602080608183398101806040526020811015602d57600080fd5b810190808051906020019092919050505050603580604c6000396000f3fe6080604052600080fdfea165627a7a72305820c577c5325e4c667e8439f998d616e74110a14fb5b185afe46d8443bbfd9c3d710029",
        "output": "0x6080604052600080fdfea165627a7a72305820c577c5325e4c667e8439f998d616e74110a14fb5b185afe46d8443bbfd9c3d710029",
        "to": "0xd3204138864ad97dbfe703cf7281f6b3397c6003",
        "type": "CREATE2",
        "value": "0x0"
      }
    ],
    "from": "0x71562b71999873db5b286df957af199ec94617f7",
    "gas": "0xac78",
    "gasUsed": "0xac78",
    "input": "0x9c4ae2d00000000000000000000000000000000000000000000000000000000000000040000000000000000000000000000000000000000000000000000000000000007b00000000000000000000000000000000000000000000000000000000000000816080604052348015600f57600080fd5b50604051602080608183398101806040526020811015602d57600080fd5b810190808051906020019092919050505050603580604c6000396000f3fe6080604052600080fdfea165627a7a72305820c577c5325e4c667e8439f998d616e74110a14fb5b185afe46d8443bbfd9c3d71002900000000000000000000000000000000000000000000000000000000000000",
    "output": "0x",
    "to": "0xe213d8b68ca3d01e51a6dba669de59ac9a8359ee",
    "type": "CALL",
    "value": "0x0"
  }
}